:020000040800F2
:1000000098C40620B10300082D55000829500008A7
:1000100075540008CB1D0008997900080000000005
:10002000000000000000000000000000F5020008D1
:10003000851E0008000000004903000859720008EE
:10004000CB030008CB030008CB030008CB03000858
:10005000CB030008CB030008CB030008CB03000848
:10006000CB030008CB030008CB030008CB03000838
:10007000CB030008CB030008CB030008CB03000828
:10008000CB030008CB030008CB030008CB03000818
:10009000CB030008CB030008CB030008CB03000808
:1000A000CB030008CB030008CB030008CB030008F8
:1000B000C9720008D5720008CB030008CB03000802
:1000C000CB030008CB030008CB030008CB030008D8
:1000D000CB0300085979000879790008CB030008A0
:1000E000871E0008CB030008CB030008CB030008E1
:1000F000CB030008CB030008CB030008CB030008A8
:10010000CB030008CB030008CB030008CB03000897
:10011000CB030008CB030008CB030008CB03000887
:10012000CB030008CB030008CB030008CB03000877
:10013000CB030008CB030008CB030008CB03000867
:10014000CB030008CB030008CB030008CB03000857
:10015000CB030008CB030008CB030008CB03000847
:10016000CB030008CB030008CB030008CB03000837
:10017000CB030008CB030008CB03000800000000FD
:10018000CB030008CB030008CB030008CB03000817
:10019000CB030008CB030008CB030008CB03000807
:1001A000CB030008CB030008CB030008CB030008F7
:1001B000CB030008CB030008CB030008CB030008E7
:1001C000CB030008CB03000800000000CB030008AD
:1001D000CB030008CB030008CB030008CB030008C7
:1001E000CB030008CB030008CB030008CB030008B7
:1001F000CB030008CB03000800F002F800F062F81F
:100200000AA090E8000C82448344AAF10107DA4571
:1002100001D100F057F8AFF2090EBAE80F0013F061
:10022000010F18BFFB1A43F0010318478081030038
:10023000A08103000A4410F8014B14F00F0508BF19
:1002400010F8015B240908BF10F8014B6D1E05D0A2
:1002500010F8013B6D1E01F8013BF9D1641E03D07B
:10026000641E01F8015BFBD19142E4D370470000AA
:100270000023002400250026103A28BF78C1FBD8AF
:10028000520728BF30C148BF0B607047642900F097
:100290005D81732900F07483002070471FB50DF055
:1002A00059F900F0DDFC0400002000210DF0E6F813
:1002B000401C6060002000210DF0CAF8E0601FBD06
:1002C00010B510BD00F0A6FC1146FFF7E7FF0AF0DD
:1002D000E5FB00F029FF03B4FFF7F2FF03BC07F0D2
:1002E0004AFC000030BF72B6704762B6704780F3B8
:1002F000088870472B4B19680868B0E8F04F80F306
:100300000988BFF36F8F4FF0000080F311887047AA
:100310000000000006480068006880F3088862B6A4
:1003200061B6BFF34F8FBFF36F8F00DF00BF00BF19
:1003300008ED00E0DFF80C00016841F47001016095
:10034000704700BF88ED00E0EFF30980BFF36F8FC7
:10035000144B1A681EF0100F08BF20ED108A20E918
:10036000F04F106008B44FF0100072B680F311889F
:10037000BFF34F8FBFF36F8F62B60CF0FFF84FF0F3
:10038000000080F3118808BC19680868B0E8F04FD5
:100390001EF0100F08BFB0EC108A80F30988BFF37D
:1003A0006F8F7047E0000220EFF305807047000078
:1003B0000948804709480047FEE7FEE7FEE7FEE7F9
:1003C000FEE7FEE7FEE7FEE7FEE7FEE70448054935
:1003D000054A064B7047000071720008F9010008D9
:1003E00098BE062098C4062098C0062098C0062013
:1003F000704753EA020C00F069802DE9F04B4FF092
:100400000006002B1FBFB3FA83F503FA05F424FAA4
:1004100005F65E4012BF1643B2FA82F502FA05F401
:10042000C5F120051EBF22FA05FC44EA0C04203564
:1004300056EA044C4FEA144418BF641C4FF00008FD
:100440004FF00009904271EB030C39D3002919BF1A
:10045000B1FA81F701FA07F6B0FA80F700FA07F669
:10046000C7F120071EBF20FA07FC46EA0C0620371A
:10047000B6FBF4FCA7EB0507103F07F01F0BCBF111
:1004800020060CFA0BFB2CFA06F644BFB3460026F6
:10049000202FA4BF5E464FF0000B5BEA060C08BF9E
:1004A0004FF0010B19EB0B09ABFB027C48EB060884
:1004B000C01B06FB02CC0BFB03CC71EB0C01C1E7AC
:1004C0000B46024641464846BDE8F08B13B54FF057
:1004D00000004FF00001AFF30080BDE81C40704702
:1004E0000FB4044910B503AA029800F04DFA10BCED
:1004F0005DF814FBD400022070B50C460546012AB5
:1005000005D02878800600D5EA69002302E001239F
:1005100005E05B1C934202D2E05C0028F9D1A86997
:10052000E618C01AA861286A184428622846AFF362
:10053000008004E0D5E9012114F8010B9047B44292
:10054000F8D32846AFF3008070BD00002DE9F041DC
:100550000646002410687529314616A510D0AFF361
:100560000080002802DA404213A507E031688A07BC
:1005700001D512A502E0490704D511A5012401E027
:10058000AFF3008000210A2206F1240709E0B0FB46
:10059000F2FCB0FBF2F302FB1C003030785418463A
:1005A000491C0028F3D123462A463046BDE8F041D5
:1005B00000F063B9000000002D0000002B000000D7
:1005C000200000002DE9F0410F460546002028627A
:1005D0002846E968884770B3252805D0D5E9012168
:1005E0009047286A401CF2E7E968284600268847B9
:1005F0006C2804460AD0682C08D04C2C35D06A2CC4
:1006000031D0742C31D07A2C2FD016E0E968064610
:1006100028468847B042044608D16C2E23D04FF4B8
:1006200080662846E9688847044606E06C2E03D0B9
:100630004FF4807601E01EE04026E4B1A4F14100D1
:10064000192802D8203446F400663A462146284646
:100650002E60FFF71BFE60B1012808D0FF1D27F0B8
:1006600007070837B4E78026DBE70026D9E73F1DF8
:10067000AEE72046B2E7286ABDE8F08170B50646CD
:1006800000F0ECF80468054630460A22002100F02C
:10069000DFF92C6070BD002800DA40427047032A61
:1006A00040F2308010F0030C00F0158011F8013B8F
:1006B000BCF1020F624498BF11F801CB00F8013B76
:1006C00038BF11F8013BA2F1040298BF00F801CB3A
:1006D00038BF00F8013B11F0030300F02580083A11
:1006E000C0F0088051F8043B083A51F804CBA0E868
:1006F0000810F5E7121D5CBF51F8043B40F8043BBD
:10070000AFF30080D20724BF11F8013B11F801CBF1
:1007100048BF11F8012B24BF00F8013B00F801CBC2
:1007200048BF00F8012B704710B5203AC0F00B808D
:10073000B1E81850203AA0E81850B1E81850A0E8E5
:100740001850BFF4F5AF5FEA027C24BFB1E818503F
:10075000A0E8185044BF18C918C0BDE810405FEAAF
:10076000827C24BF51F8043B40F8043B08BF70472B
:10077000D20728BF31F8023B48BF11F8012B28BF30
:1007800020F8023B48BF00F8012B704702F0FF033E
:1007900043EA032242EA024200F094B94FF0000219
:1007A00000B5134694469646203922BFA0E80C5067
:1007B000A0E80C50B1F12001BFF4F7AF090728BF42
:1007C000A0E80C5048BF0CC05DF804EB890028BFBE
:1007D00040F8042B08BF704748BF20F8022B11F0E7
:1007E000804F18BF00F8012B704700004FF0013C0C
:1007F00050F8042B51F8043B9A4215D1A2EB0C039C
:10080000934313EACC130BD150F8042B51F8043B5B
:100810009A4209D1A2EB0C03934313EACC13E7D01D
:100820004FF00000704700BFD01A01BAB1FA81F151
:1008300001F0180122FA01F0CB40C1F12001DBB236
:10084000C0B2C01A2CFA01F3D11A914311EAC311B4
:10085000E6D170477047704770477047004870474F
:1008600038BE062010B5FFF7F9FF006810BD10B5BF
:100870000446FFF7F3FF046010BD2DE9F0470D4675
:1008800099469246044600F124080168880604D57A
:10089000E06921F01001216000E00120A84201DDA3
:1008A000471B00E00027A1697A1902EB0900081A2A
:1008B000A0612078C00602D42046AFF30080002655
:1008C00008E0D4E901211AF806009047206A401C8C
:1008D000761C20624E45F4DB2078C0060AD52046FF
:1008E000AFF3008006E0D4E9012130209047206A70
:1008F000401C2062381EA7F10107F4DC07E0D4E9B0
:10090000012118F805009047206A401C2062281E2B
:10091000A5F10105F3DC2046AFF300802078000646
:1009200002D50220BDE8F0870120FBE701694A1CDF
:1009300002610878704700B58FB0CDE90131002120
:10094000059105497944CDE9031011466846FFF742
:1009500039FE0FB000BD0000E5FFFFFF10B5436991
:1009600013B1AFF3008001E0FFF7C6FD012010BD19
:10097000127800F124010A7000224A700122EDE78A
:1009800011684FF0FF32E9E7074B70B50D467B4425
:10099000FFF7D1FF0446284600F038F910B14FF0B8
:1009A000FF3070BD204670BD1B9D00000FB40023BA
:1009B00000B589B00CA900910B99CB60214B7B4409
:1009C0000693214B7B44079304236FF00042CDE94B
:1009D00001321E4A7A446B460892024600200CF00F
:1009E0005BFE09B05DF814FB70B506464FF0FF30B2
:1009F00015460C46324686B00091CDE901016946A4
:100A00000020049004A8FFF7D1FF024604982118A3
:100A100025B108B1084600E0204628600498002867
:100A20000DD0002A02DD0098884208D03246081B0B
:100A300069460094CDE9010404A8FFF7B7FF06B0AA
:100A400070BD00006D01000085010000450100003F
:100A50002DE9F04791460F4680460446002614F8DB
:100A6000015B2DB100F052F80068405DC007F6D17F
:100A70002B2D02D02D2D18D0641E4A463946204613
:100A800000F075F827B13968A14201D1C7F800809C
:100A90004FF0020471050BD54042002803DDFFF73B
:100AA000DDFE0460A007BDE8F08746F48066E4E759
:100AB0000028F8DAFFF7D2FE04606FF00040F2E79A
:100AC0004FF000020429C0F0128010F0030C3FF434
:100AD00067AECCF1040CBCF1020F18BF00F8012B7B
:100AE000A8BF20F8022BA1EB0C01FFF759BE5FEA6B
:100AF000C17C24BF00F8012B00F8012B48BF00F88F
:100B0000012B70470048704738BE062010B500F032
:100B1000A7F8001D10BD00BF65C9000010B5044650
:100B2000FFF7F4FF0068005D00F0010010BD4268AF
:100B300042B1016811F8013B23B1521EC0E9001215
:100B4000184670470121C160881E704742685AB13B
:100B5000C368016843B983688B4205D0491E521CA3
:100B6000C0E90012002070474FF0FF3070472DE9B8
:100B7000F05F824615468B4600270AF10104B9460C
:100B80000078302801D09DB113E014F8010B012743
:100B9000782803D0582801D045B10AE00DB1102DB6
:100BA00007D1002714F8010B102502E0082500E00A
:100BB0000A250026B0460EE005FB080005FB06F1FD
:100BC00001271FFA80F801EB1046B6F5803F00D3ED
:100BD000B94614F8010B294600F046F80028EBDA74
:100BE000BBF1000F05D00FB1641E00E05446CBF8F6
:100BF0000040B9F1000F06D0FFF730FE022101607E
:100C0000C81EBDE8F09F48EA0640FAE7007B00F006
:100C1000800070477546FFF775FFAE4605006946D0
:100C2000534620F00700854618B020B5FFF7CEFBED
:100C3000BDE820404FF000064FF000074FF00008DD
:100C40004FF0000B21F00701AC46ACE8C009ACE85E
:100C5000C009ACE8C009ACE8C0098D467047000087
:100C60000048704758BE06203A2800D2303820F09D
:100C70002002412A01D3A2F13700884201D34FF06C
:100C8000FF3070472DE9FF4F064689B00878FF28EE
:100C900006D0491C2D2805D000244FF0000908E09B
:100CA00000200CE00124F8E709EB8903491C00EB64
:100CB00043090878FF28F7D114B1C9F10000814633
:100CC000107800252C46AA4629462D2801D02B282D
:100CD00004D1521C2D2813D0002082468B46107858
:100CE000FF280FD04FF0000C0A21521CA5FB017801
:100CF00004FB018105FB0C11C5194BEB0104EEE768
:100D00000120EAE7002108464FF00000BAF1000F89
:100D100002D000EB80004008C0F38158B8F1010F09
:100D200001DD4FF0FF380C9809EB000755EA04008D
:100D300009D04FF0020917F5FA7F0BDA4FEACA70B3
:100D4000C6E900B012E04FEACA70C6E900B00DB0C3
:100D5000BDE8F08FB7F5FA7F0DDDF0487844D0E9B3
:100D60000010C6E9001040EACA707060FFF776FD17
:100D7000C0F80090EBE7391E02DAC8F1000200E08B
:100D8000424600DA794206A800F0D8F906AB93E8AB
:100D9000070003AB83E8070044F23E005BEA04016E
:100DA0000090584604D144F21E012C465D46009145
:100DB000210C0904014306D10099240444EA154496
:100DC0002D041039009104F07F41014306D10099B0
:100DD000240244EA15642D020839009104F07041A0
:100DE000014306D10099240144EA15742D01091F1D
:100DF000009104F04041014306D10099A40044EA67
:100E00009574AD00891E009104F00041084304D19F
:100E100000986D196441401E009042466846002FBC
:100E2000CDE9014503A902DD00F099FE01E000F0E3
:100E30006EFEBAF1000F04460D4601D084F0004466
:100E400040F2FF7724F00040284303D0C4F30A5057
:100E5000B84212D1FFF702FDC0F80090C4F30A5067
:100E6000B8420AD1AE487844D0E90010C6E9001073
:100E700004F000410843706069E7C6E9005466E782
:100E80002DE9FF4F1F464FF0000A4FF0FF3845464F
:100E900091B0D7E90146CDF83CA0FFF7E1FEC0686C
:100EA0000168405C1090B96912986D1C8847396AD6
:100EB000814688470028F6D1B9F1FF3F0AD0002EBD
:100EC00024F4D06411DDB9F12B0F08D0B9F12D0F46
:100ED0000BD102E0404615B03AE744F48064B969AA
:100EE00012986D1C8847761E8146600504A901D5BD
:100EF0002D2000E02B20002E01F1010B0DF1300818
:100F00008DF810003FDDB9F1690F08D0B9F1490F34
:100F100005D0B9F16E0F02D0B9F14E0F1CD13B468E
:100F200001A8009580E85002DDE912126FF002007E
:100F30000CF0B6FBC11CCED10EE0B96912986D1C45
:100F4000884781461398761E44F4007405600F9814
:100F5000401C002E0F9016DDB9F1300FEDD0B9F125
:100F6000780F02D0B9F1580F0DD10F9801280AD18E
:100F70003B46CDE90054DDE91212001F02960CF049
:100F80008DFBC11CA7D1109989453ED144F0800446
:100F900006E01399681CAAF1010A44F40074086081
:100FA000B9696D1C1298761E884730288146F0D0AA
:100FB0002BE01099894505D1200603D4761E44F014
:100FC000800418E0484606F0CFFD08B3761E0DF108
:100FD00023018B4544F4007408D2A9F130000BF8CA
:100FE000010B200607D5AAF1010003E0200602D478
:100FF0000AF101008246A00502D51399681C086019
:10100000B96912986D1C88478146002ED1DC53E0E7
:10101000002E51DDB9F1650F02D0B9F1450F4BD16A
:10102000A00549D5B9696D1C1298761E24F4407448
:101030008847002E81460CDD2B2804D0B9F12D0FF6
:1010400007D144F48074B96912986D1C8847761EE4
:101050008146E00501D52D2100E02B2108F8011B78
:10106000CDF8008021E0761E0DF13901884544F469
:1010700000740CD2A9F1300010F0FF0088F80000D5
:1010800002D10099884509D908F1010806E0E00578
:1010900001D5244801E042F20F708246B9691298E6
:1010A0006D1C8847814613980560002E04DD484674
:1010B00006F05AFD0028D6D1F96912988847FF201A
:1010C00053468BF8000088F8000000200A900B902F
:1010D00004AA0CA90AA8FFF7D5FDA00502D46FF059
:1010E0000100F8E614F0240F0AD0E00714D13868A4
:1010F000DDE90A12031D3B600068C0E900120BE045
:101100000AA9684606F080FCE00705D13868009A15
:10111000011D3960006802602846DCE66C76030039
:1011200062750300F1D8FFFF10B50446AFF30080ED
:101130002046BDE81040FFF7CEB800002DE9F0478B
:10114000814616468AB0334878440DC88DE80D00B4
:1011500030487844801C03AC0DC884E80D0041F68B
:101160009B300844372190FBF1F290FBF1F5A5F19B
:10117000800501FB12041B3C02D56442012000E003
:101180000020DFF890A080460027FA44AAF1BE0AAA
:101190000DE0E00709D03246684607EB47010AEB4D
:1011A000810100F0C8FC8DE8070064107F1C002C52
:1011B000EFD1184F7F44AC3F18E0E80714D007EB9D
:1011C00004100DF1180A90E80E008AE80E00C068BD
:1011D000F04201D198190890324606A903A800F000
:1011E000AAFC03AB83E807006D10641C002DE4D15A
:1011F00032466946B8F1000F03A802D000F073FC34
:1012000001E000F098FCC9E90001C9F808200AB023
:10121000BDE8F087487203002DE9FF4F1F464FF0ED
:101220003C0987B04FF00042DDE9141001F10108DC
:10123000DDF858A002EA4050039000200590834654
:10124000054604460490B969461E08988847AAF1E5
:10125000010A0290BAF1000F3BDD02982E2815D04A
:101260001021FFF701FD00282EDB4FF0010B05993F
:10127000014317D0B9F1000F0BDB4A46C11700F04C
:10128000F5F905430C43A9F1040905E00120049098
:101290000BE008B145F0010501200590049820B944
:1012A000361D02E0049800B1361FB969089808F1AC
:1012B00001088847BBF1000FAAF1010A0290C9D0CA
:1012C0000999C1F80080C5E70298702808D0502815
:1012D00006D0F96908988847BBF1000F14D04FE099
:1012E000002002900120BBF1000F049009D0B969E1
:1012F000089808F101088847AAF10109B9F1000F1F
:1013000007DCF969089888476FF001000BB0BDE869
:10131000F08F2B2804D02D280CD14FF0FF300490F3
:10132000B969089808F101088847A9F10109B9F1DC
:10133000000FE6DD411CE4D00A21FFF795FC0028F0
:10134000DFDB029908F1010801EB810100EB4100AC
:101350000290B969089888470A21FFF785FC099A25
:10136000A9F10109B9F1000FC2F8008001DD0028E0
:10137000E7DAF969089888470499029800FB016642
:1013800055EA040004D004F04041090002D006E010
:10139000039898E0A40044EA9574AD00B61E04F0EA
:1013A0000041080002D16D196441761E159810F0B5
:1013B000240F03D04FF00B095C4803E04FF02809DD
:1013C0006FF07D008246564507DAAAEB0601894494
:1013D000B9F1410F01DD4FF0410901200021A9F1D0
:1013E000010200F043F9024628400B462140084321
:1013F00001D0012100E00021501E029143F1FF3194
:1014000028402140084301D0012000E0002002993B
:10141000834651EA0B014FD0002108464FF00000EF
:10142000039900F4400039B100EB80004FF4400113
:1014300000EBD07001EA60008015012802DD4FF05A
:10144000FF3000E013D0401C36D0029860B3BBF1EF
:10145000000F0CD14A460120002100F007F9284076
:101460002140084301D0012000E00020E0B101202C
:101470004A46002100F0FAF8034640190A46614145
:101480002D1A8C4111D3B9F1400F09DD159810F0D8
:10149000240F02D0AAF1340603E0AAF1170600E0F7
:1014A000761C00254FF0004406E05B1E42F1FF323F
:1014B00020EA030521EA0204CAF10100B04206DA7B
:1014C0001B49039808430190002000900EE0039A06
:1014D000C4F3D321E80A0A43164940EA44500A43B8
:1014E0003146CDE90002684606F0E2FA159810F0A0
:1014F000240F0BD01598C00715D13868DDE900120C
:10150000031D3B600068C0E900120CE002A86946B8
:1015100006F07AFA1598C00705D13868029A011DBD
:101520003960006802604046F0E6000002FCFFFF00
:101530000000F07F0000F03F2DE9FF4F92461D466E
:1015400085B04FF00041DDE9124BDDE914727F1EDA
:1015500001EA4B50414940F0FF4940EA01080021AF
:1015600022F020004928049102D04E2828D04CE0D7
:101570003BA0012607C88DE80700A9690698641CEE
:1015800088477F1E014606D41DF8060018B121F0D9
:10159000200181420BD0E96906988847032E34D098
:1015A000082E32D06FF0010009B0BDE8F08F761C34
:1015B000032E01D0082EE0D1601CCAF80000DCE741
:1015C000A9690698641C88477F1E2AD420F0200051
:1015D000412826D1A9690698641C88477F1E20D41B
:1015E00020F020004E281CD1A9690698641C884769
:1015F0007F1E48F4002849F48009CAF8004001D44D
:10160000282806D0E969069888475FEACB7012D08F
:1016100022E0A9690698641C88477F1E01D400282F
:1016200003DAE96906988847BCE72928F1D1641CE8
:10163000CAF80040E9E71BF0240F07D02868049996
:10164000031D2B600068C0E9001805E02868021D32
:101650002A600068C0F800902046A5E70000F07FEF
:10166000494E46494E49545900000000B2F120034A
:101670000AD5C2F1200301FA02F120FA03F300FABD
:1016800002F041EA0301704700FA03F14FF0000055
:10169000704720F07F4C80EA030023F07F47ACEBDB
:1016A000070303F57C5300F0004003F1FF032DE92D
:1016B00080494FEA154B09B44FEA144325EA0B4E13
:1016C00024EA03480FF2042606EB132749083E7864
:1016D0005FEA320203FB0667C7F5000707FB06F661
:1016E0004FEA54374FEAD64606F1020607FB066C6E
:1016F000CCF1005C4FEA1C472CEA074C07FB06F4D0
:101700000CFB06F504EB15464FEA961634BF002095
:101710004FF000404FEAD13706FB07FC4FEA1C4C64
:101720000CFB0BF7D21B03FB0CF761EB07010CFB67
:101730000EF7B0EB074072EB17420CFB08F734BF13
:10174000A2EB0742B2EB074261EB17414FEA0C44B0
:101750004FEA910706FB07FC4FEA1C4C0CFB0BF70A
:10176000B0EBC74072EB573203FB0CF734BFA2EB70
:10177000C742B2EBC74261EB57310CFB0EF7B0EB3F
:10178000C70072EB57720CFB08F734BFA2EBC7021D
:10179000B2EBC70261EB5771039F4FEA816141EAE7
:1017A000921104EBCC044FEAD1374FEA826206FB78
:1017B00007FC42EA90124FEA80604FEA1C4C0CFB97
:1017C0000BF7D21B03FB0CF761EB07010CFB0EF7C9
:1017D000B0EB074072EB17420CFB08F734BFA2EBEB
:1017E0000742B2EB074261EB17414FEA8C554FEAD3
:1017F000910704EB9C2406FB07FC4FEA1C4C0CFBF6
:101800000BF7B0EBC74072EB573203FB0CF734BF5A
:10181000A2EBC742B2EBC74261EB57310CFB0EF7AC
:10182000B0EBC70072EB57720CFB08F734BFA2EBAA
:10183000C702B2EBC70261EB577115EB4C254FEABB
:10184000816141EA92114FEA82624FEAD13742EA5E
:10185000901206FB07FC44F100044FEA80604FEA57
:101860001C4C0CFB0BF7D21B03FB0CF761EB0701C5
:101870000CFB0EF7B0EB074072EB17420CFB08F7BE
:1018800034BFA2EB0742B2EB074261EB174115EB05
:101890001C154FEA813141EA92414FEA823242EA15
:1018A00090424FEA80304FEA0C7644F1000448EA57
:1018B00003434EEA0B484FF0000EB2EB080C71EBFD
:1018C000030724BF624639464EEB0E0E4FF0000B65
:1018D0000018524149414BEB0B0BB2EB080C71EB7A
:1018E00003077BF1000B24BF624639464EEB0E0E18
:1018F0004FF0000B0018524149414BEB0B0BB2EB80
:10190000080C71EB03077BF1000B24BF62463946DC
:101910004EEB0E0E51EA020718BF46F0010616EB19
:101920000E7655F1000254F1000103D5BDE889019E
:10193000BDE80088BDE88901BDE80048B6195241FC
:1019400041EB0101A3F10103704780807F7E7D7C24
:101950007B7A7978777676757473727171706F6E41
:101960006E6D6C6C6B6A6A696868676666656464EC
:10197000636362616160605F5F5E5E5D5D5C5C5B76
:101980005B5A5A59595858575756565555555454E5
:10199000535352525251515050504F4F4F4E4E4D43
:1019A0004D4D4C4C4C4B4B4B4A4A4A49494948488F
:1019B00048474747474646464545454444444443CF
:1019C00043434342424242414141000046EA064607
:1019D000A3F570534FEA164646EA42564FEAD22222
:1019E00042EA415210B54FEAD121A3F1010300F0C0
:1019F00017F820F0004000F1010C00F0004701EB67
:101A000000501146BCF5006F40EA070000D210BD3F
:101A100002484FF0000140EA070010BD0000F07FCF
:101A2000002B26D4770021D01CB54FEA370703B42A
:101A30004FF010004FF010014FF000000FBCBDE858
:101A400010400BF1010BBBF1010F08BF5FEA170754
:101A500022BF12F1010211F101014FF0004143F1E7
:101A6000000300F0004043EA00007047F9D3570834
:101A7000DAE746EA064613F1400F4FEA16461FDD45
:101A800013F1200FDFBF16430A46002120335B42CB
:101A9000C8D0C3F1200746EA064602FA07F74FEA24
:101AA000164646EA0706C3F1200722FA03F201FAB6
:101AB00007F721FA03F14FF0000342EA0702B1E70A
:101AC00046EA020646EA06464FEA164646EA010696
:101AD000BCBF46EA0646360C4FF000034FF000024A
:101AE0004FF000019EE72DE9C048934630B491E8DD
:101AF000380007C831EA400C48BF34EA430C03D52C
:101B0000FFF7C7FDFFF78CFFF0BCBDE800882DE9AB
:101B1000C048934630B491E8380007C831EA400C19
:101B200048BF34EA430C03D5FFF7B3FDFFF74EFF80
:101B3000F0BCBDE800882DE9C048934630B491E878
:101B4000380007C810F0804F08BF13F0804F03D152
:101B500000F019F8FFF764FFF0BCBDE800882DE93C
:101B6000C048934630B491E8380007C810F0804F61
:101B700008BF13F0804F03D100F005F8FFF726FFF0
:101B8000F0BCBDE8008820F07F4780EA030023F026
:101B90007F4C07EB0C03A3F57C5300F00040A3F14E
:101BA000FE0392F0000F00F0B38095F0000F00F0FC
:101BB00077802DE901494FEA11404FEA144621EAA6
:101BC000004800FB06FC24EA064708FB06F607FB74
:101BD00008F800FB07F718EB06484CEB164C4FEAE9
:101BE000124B18EB07484FEA15464CEB174022EA18
:101BF0000B4E0BFB06FC25EA06470EFB06F607FB21
:101C00000EFE0BFB07F71EEB064E4CEB164C4FF08F
:101C100000061EEB074E4CEB174B18EB0B0840F180
:101C2000000018EB0E0B58EB000840F100008F1A73
:101C30004FF000013CBFC943661B14BFB5EB040C59
:101C400000213CBFC943F61B4FEA17444EEA8E0EF3
:101C500027EA04454FEA1C4704FB07622CEA074CBD
:101C600005FB07F70CFB05F604FB0CFC16EB07461F
:101C700042EB174216EB0C4642EB1C421BEB0606EE
:101C800058EB0202414146EA9E0601D5BDE80189B2
:101C9000B619524141EB0101A3F10103BDE80189ED
:101CA0004FEA14454FEA114724EA054621EA074C5A
:101CB00005FB07F406FB07F70CFB06F105FB0CFC24
:101CC00011EB074144EB17444FEA124711EB0C416B
:101CD00044EB1C4422EA074C05FB07F206FB07F71E
:101CE0000CFB06F605FB0CFC16EB074642EB174215
:101CF00016EB0C4642EB1C456A1854F1000148BF34
:101D00007047B619524141EB0101A3F1010370473D
:101D100095F0000F37D04FEA11424FEA144721EAFD
:101D2000024624EA074C02FB07F106FB07F70CFB0F
:101D300006F402FB0CFC14EB074441EB17414FEA9D
:101D4000154714EB0C4441EB1C4125EA074C02FB00
:101D500007F506FB07F70CFB06F602FB0CFC16EB7F
:101D6000074645EB174516EB0C4645EB1C4212198E
:101D700051F1000148BF7047B619524141EB0101D2
:101D8000A3F1010370474FEA14454FEA114724EAD3
:101D9000054621EA074C05FB07F106FB07F70CFB9C
:101DA00006F24FF0000605FB0CFC12EB074241EB7C
:101DB000174112EB0C4251EB1C4148BF704792187F
:101DC00041EB0101A3F101037047FEE770B4BFF3DB
:101DD0004F8FBFF36F8F1A4900200860194D296893
:101DE00041F400312960BFF34F8FBFF36F8F164965
:101DF0000860BFF34F8F081F006843F6FF76134A51
:101E0000C0F34E3CC0F3C90406EA4C11204641EA37
:101E100080731360401EFAD2BCF1010CF4D2BFF300
:101E20004F8F286840F480302860BFF34F8FBFF396
:101E30006F8F0748016841F00401016070BC704772
:101E400050EF00E014ED00E084ED00E060EF00E012
:101E50009CEF00E00021034601205A5C7AB1A2F118
:101E60003000092803D92E2A18BF2D2A05D1491C74
:101E70000120C9B21929F0D370470020704700290A
:101E8000FBD0704770474FF4005001F021B90000BB
:101E900010484DF804ED87B0016841F00101016080
:101EA0000068694600F0010005904FF40050009072
:101EB0000948019001200290084801F015F9032219
:101EC0000621282001F074FA282001F064FA07B0F6
:101ED0005DF804FB30380240000021100008024089
:101EE00005480021017041708170C170017141711C
:101EF0008171C171704700000C0002204FF4165030
:101F000010B509F0ADFF08490122084802F06AFF48
:101F1000002004F0D5FF322005F0E4FFBDE81040BA
:101F20004FF4E13009F09CBFCA00022014090220DE
:101F300000281CBF0029002BDCBF0020704770B4B4
:101F40004FF0000C644666460AE02C2D08BF641C66
:101F50000CF1010CBCF1B40F1CDA10F80C50CDB12F
:101F6000944205D010F80C50002DEED1002215E05F
:101F700010F80C202C2A18BF2A2AF7D10AE08C541A
:101F8000521C9A420CF1010C01DB5A1E0DE0BCF10F
:101F9000B40F03DB0E70002070BC704710F80C40CB
:101FA0002C2C1CBF2A2C002CE9D18E5470BC012093
:101FB00070470000000000000FB42DE9F04F24200E
:101FC000DFF874B406242DED028B97B08DF8200055
:101FD00047208DF821004E208DF8220052208DF8E8
:101FE00023004D208DF8240043208DF825009DF816
:101FF0008E709DF8880003F05DFEDFF8408498F84D
:1020000000008DF8140098F801008DF815009DF877
:10201000890003F04FFE98F800008DF8160098F83C
:1020200001008DF817009DF88A0003F043FE98F830
:1020300000008DF8180098F801008DF819002E2086
:102040008DF81A00BDF88C00642806D34CF6CD41FB
:1020500000FB01F0C00CADF88C00C0B203F02AFE0A
:1020600098F800008DF81B0098F801008DF81C000E
:10207000DBF81800DFF8D0A39FEDF18B34EA000104
:1020800004D110F0100F18BF412703D1D9B910F0B7
:10209000100F18D09AED040B20EE080B03F028FE69
:1020A00000200DF1380918F8001009F80010401C44
:1020B000C0B20A28F7D3DBF8180034EA00019DF813
:1020C00098400CD102E09DED240BE7E710F0100FD3
:1020D00005D04E2C14BF532C254631BB05E04E2CA9
:1020E00014BF532C2546F8D1F3E710F0100F1CBF96
:1020F0009AED060B20EE080B17D003F00DFF002021
:102100000DF1480B18F800100BF80010401CC0B27D
:102110000B28F7D3DFF820C306239DF8A800DCF8CE
:10212000181033EA01020BD102E09DED280BE4E721
:1021300011F0100F04D0572818BF452804D004E030
:10214000572818BF452800D106464E2C14BF532CE3
:1021500025469DED2C0BB7EEC00B9FEDBC8A0420ED
:1021600003F0FEFF98F8000006218DF8300098F883
:1021700001008DF8310098F802008DF8320098F8CF
:1021800003008DF8330098F804008DF83400AA4855
:10219000806981431ED110F0100F1BD09AED100BF7
:1021A0000420B7EEC00B03F0DBFF2D24D0B198F86C
:1021B00000008DF8000098F801008DF8010098F8F3
:1021C00002008DF8020098F803008DF8030098F8DB
:1021D000040017E09DED2E0B0420B7EEC00B03F0BA
:1021E000BFFFE2E78DF8004098F800008DF801008D
:1021F00098F801008DF8020098F802008DF80300AD
:1022000098F803008DF804009DF8C20003F052FD19
:1022100098F800008DF8280098F801008DF8290042
:102220009DF8C30003F046FD98F800008DF82A00E1
:1022300098F801008DF82B00BDF8C400A0F5FA60F5
:10224000C0B203F037FD98F800009DF8D0A08DF8DB
:102250002C0098F80100BAF1000F8DF82D0006D07F
:102260009DED320B0320B7EEC00B03F079FF042085
:10227000B0EE480A03F074FF012817D08DF80C4027
:1022800098F800008DF80D0098F801008DF80E0008
:1022900098F802008DF80F0098F8030006218DF8D9
:1022A00010006548806981437ED112E098F80000F3
:1022B0008DF80C0098F801008DF80D0098F80200D8
:1022C0008DF80E0098F803008DF80F0098F80400C0
:1022D000E4E710F0100F18BF412165D05C4C2A22B2
:1022E000002008AB13F800C004F800C0401CC0B2C6
:1022F0000628F7D32C23A37100200DF1140C04EB56
:10230000000E1CF800C0401CC0B28EF807C009289F
:10231000F3D3237400206774A374271819F800C03E
:10232000401CC0B20A2887F813C0F6D36377002098
:10233000A577E37725181BF800C0401CC0B20B2816
:1023400085F820C0F6D384F82B30002084F82C6068
:102350000DF1300C84F82D3026181CF80050401C6C
:10236000C0B286F82E500528F6D30020EC4684F83B
:10237000323026181CF80050401CC0B286F833508A
:102380000528F6D3002084F838300DF1280C2618E3
:102390001CF80050401CC0B286F839500628F6D30D
:1023A000002084F83F3000E041E00DF10C0C2618CD
:1023B0001CF80050401CC0B286F840500528F6D3E7
:1023C000BAF1000F84F8453014BF9DF8D1003020D9
:1023D00084F84600002084F8473084F848104921EA
:1023E00084F8492003F0A4F803F0C4F898F800003A
:1023F00084F84A0098F80100164984F84B000D2033
:1024000084F84C000A2084F84D004E2081F8210009
:1024100011A00F49FEF764F80D4910A009F028FA41
:1024200017B0BDEC028BBDE8F00F5DF814FB9DF812
:10243000D21053E70000000038110420E606022005
:10244000F8C1631ADCA54C406806022000000000B9
:10245000130702205800022025730000303A536110
:102460007665446174612F477073446174612E74A2
:1024700078740000000000000FB42DE9F04F242014
:102480004FF000094E212DED028B99B08DF81C0004
:1024900047208DF81D008DF81E108DF81F008DF857
:1024A000200041208DF821009DF8900003F002FCEF
:1024B000DFF844B49BF800008DF810009BF8010091
:1024C0008DF811009DF8910003F0F4FB9BF80000DB
:1024D0008DF812009BF801008DF813009DF8920012
:1024E00003F0E8FB9BF800008DF814009BF8010056
:1024F0008DF815002E208DF81600BDF89400642884
:1025000006D34CF6CD4100FB01F0C00CADF89400B1
:10251000C0B203F0CFFB9BF800000626F74F8DF802
:1025200017009BF801008DF81800B869DFF8D8A3F0
:102530009FEDF38B36EA00011DD110F0100F1CBF88
:102540009AED040B20EE080B15D003F0D1FB0DF132
:102550002C081BF8090008F8090009F1010000F037
:10256000FF09B9F10A0FF4D3B9699DF8A80036EA5A
:1025700001020BD102E09DED260BE6E711F0100FF2
:1025800004D04E2818BF532806D00EE04E2818BF9E
:10259000532801D03ABB05E04E28044614BF532807
:1025A0000446F7E711F0100F1DD09AED060B20EE50
:1025B000080B03F0B1FC00200DF13C091BF80010E2
:1025C00009F80010401CC0B20B28F7D3B9690620E7
:1025D0009DF8C13030EA010203F13000C6B29DF827
:1025E000C00009D102E09DED2C0BE2E711F0100FC5
:1025F0001CBF572845280CD15728054614BF45282D
:10260000054612B911F0100F03D142B911F0100FA5
:1026100005D0002B1ABF97F89A02002836269DF89D
:10262000C20003F047FB9BF8000014909BF80100E8
:10263000139003209FEDB50A03F092FD9BF8000074
:1026400006218DF824009BF801008DF825009BF8E9
:1026500002008DF826009BF803008DF82700B8696A
:1026600081433AD110F0100F37D09AED080B0420B7
:10267000B7EEC00B03F074FD012836D02D208DF885
:1026800000009BF800008DF801009BF801008DF818
:1026900002009BF802008DF803009BF803004D2711
:1026A0008DF8040004209AED120BB7EEC00B03F076
:1026B00057FD68B39BF800008DF808009BF80100F7
:1026C0008DF809009BF802008DF80A009BF80300C2
:1026D0008DF80B009BF804002BE09DED340B0420DB
:1026E000B7EEC00B03F03CFDC6E79BF800008DF889
:1026F00000009BF801008DF801009BF802008DF8A6
:1027000002009BF803008DF803009BF80400C6E765
:102710002D208DF808009BF800008DF809009BF82B
:1027200001008DF80A009BF802008DF80B009BF861
:1027300003008DF80C0003209DED3C0BB7EEC00BA1
:1027400003F00EFD9BF8000017909BF80100169017
:102750009BF80200159000209BF803A003F05CFAA0
:102760009BF800002A228DF8280000219BF8010028
:102770000DF11C0C8DF829009BF802008DF82A0041
:102780009BF803008DF82B0061481CF8013043547E
:10279000491CC9B20629F8D32C218171002104AB50
:1027A00000EB010E13F801C0491CC9B28EF807C036
:1027B0000929F5D32C230374002100EB010E18F82E
:1027C00001C0491CC9B28EF811C00A29F5D3C376DD
:1027D000002104774377441819F801C0491CC9B295
:1027E0000B2984F81EC0F6D380F829300DF1240C93
:1027F00080F82A5080F82B3080F82C6080F82D303B
:10280000149980F82E10139980F82F10002180F869
:10281000303045181CF80140491CC9B285F83140D8
:102820000429F6D30021EC4680F8353045181CF811
:102830000140491CC9B285F836400529F6D380F815
:102840003B30002180F83C700DF1080C80F83D30E1
:1028500045181CF80140491CC9B285F83E400529BD
:10286000F6D380F84330044680F8447080F8453051
:10287000179980F84610169980F84710159980F836
:102880004810002180F849A080F84A300AAB65184A
:1028900013F801C0491CC9B285F84BC00429F6D30E
:1028A0004F2184F84F20542002F042FE02F062FED5
:1028B0009BF8000084F850009BF80100154984F84B
:1028C00051000D2084F852000A2084F8530054204F
:1028D00081F8200010A00E49FDF702FE0C490FA060
:1028E00008F0C6FF19B0BDEC028BBDE8F00F5DF833
:1028F00014FB000000000000E6060220381104204E
:10290000F8C1631ADCA54C406806022000000000F4
:10291000DB0702205800022025730000303A536183
:102920007665446174612F477073446174612E74DD
:10293000787400002DE9F0473C210446D02002F0D5
:1029400002FD60F307053B21D02002F0FCFC60F3A0
:102950000F253E212F46D02002F0F5FC60F31745ED
:102960003D21D02002F0EFFC60F31F654021D02014
:102970004FEA154902F0E7FC60F307063F21D0203B
:1029800002F0E1FC60F30F264421D02002F0DBFCD2
:1029900060F307054321D02002F0D5FC60F30F253A
:1029A0004621D02002F0CFFCA846452160F317480D
:1029B000D02002F0C8FC60F31F684821D0204FEA05
:1029C000184A02F0C0FCB046472160F30708D02047
:1029D00002F0B9FC01464046257084F801A061F37D
:1029E0000F20A070E77084F804906671BDE8F0874E
:1029F0002DE9F04149490122494802F0F3F9494ED5
:102A00000027494CF078012813D1042004F058FA2B
:102A1000322005F067FAE07830B144A0F770FDF796
:102A20005FFDFFF75DFA04E047A0FDF759FDFFF7F2
:102A3000DFFF3079012598B9052004F041FA3220F2
:102A400005F050FA207930B144A03571FDF748FD0A
:102A5000FFF746FA04E048A0FDF742FDFFF7C8FF84
:102A6000707998B9062004F02BFA322005F03AFA72
:102A7000207930B146A07571FDF732FDFFF730FACD
:102A800004E04AA0FDF72CFDFFF7B2FFB07998B93A
:102A9000072004F015FA322005F024FAA07930B1AD
:102AA00048A0B571FDF71CFDFFF71AFA04E04CA031
:102AB000FDF716FDFFF79CFFF07998B9082004F0A8
:102AC000FFF9142005F00EFAE07930B14AA0F57153
:102AD000FDF706FDFFF704FA04E04EA0FDF700FD48
:102AE000FFF786FF3078012812D104F0E9F91420AD
:102AF00005F0F8F9207830B14CA03770FDF7F0FC04
:102B0000FFF7EEF904E04FA0FDF7EAFCFFF770FFD6
:102B1000BDE8F0414F4800F07FB90000CA00022034
:102B200014090220040002200C0002204753542004
:102B30004F50454E20205355434345535346554C23
:102B40004C59210D0A000000475354204F50454E68
:102B500020204641494C4544210D0A004753562048
:102B6000434C4F53452020535543434553534655FB
:102B70004C4C59210D0A000047535620434C4F53EB
:102B80004520204641494C4544210D0A00000000E3
:102B900047534120434C4F53452020535543434511
:102BA000535346554C4C59210D0A000047534120C0
:102BB000434C4F534520204641494C4544210D0A82
:102BC0000000000056544720434C4F5345202053EB
:102BD00055434345535346554C4C59210D0A00006B
:102BE00056544720434C4F534520204641494C45BD
:102BF00044210D0A00000000474C4C20434C4F5329
:102C00004520205355434345535346554C4C592179
:102C10000D0A0000474C4C20434C4F5345202046A2
:102C200041494C4544210D0A0000000035485A2016
:102C3000205355434345535346554C4C59210D0A97
:102C40000000000035485A20204641494C454421A7
:102C50000D0A0000CC0A02200C4902204DF804EDB8
:102C600083B00023C201CDE900010C4808A10AF09D
:102C7000BBF800220C21012009F06AFD03494860DD
:102C80000028FDD003B05DF804FB000044000220E2
:102C90004770735F7461736B00000000A12C000823
:102CA00084B01D4C1D4D0026039603AA606869463A
:102CB00009F0F0FF0028F8D09DF800000028F4D1BA
:102CC0000299A1600A18401CC0B292F8EF30C828DF
:102CD00082F84033F6D300200A18401CC0B292F8A4
:102CE000B731C82882F80834F6D301F5507002F0E5
:102CF0005FFCA06800F5816002F0EEFD28780028F6
:102D00001CBF68780028D0D02E700021044A012012
:102D10006E7009F093F8C8E74400022058060220BC
:102D2000880102204DF804ED85B000238DF80000E5
:102D30000548CDE9011203AA6946406809F034FF4D
:102D400005B05DF804FB0000440002202DE9F041CD
:102D5000866D044600F0EAFA054694F8350000272F
:102D6000022806D080206065012084F83470BDE818
:102D7000F0812068016821F0160101602068416936
:102D800021F080014161206C002804BFA06C002864
:102D900004D02068016821F0080101602068016802
:102DA00021F0010101602068006810F0010F12D0CD
:102DB00000F0BCFA401B052808D92020606584F883
:102DC0003470032084F83500BDE8F0812068006885
:102DD00010F0010FECD194F85C003F2101FA00F0F3
:102DE000B060012084F8347084F835000020BDE81C
:102DF000F08190F83510022903D08021416501202F
:102E00007047052180F835100068016821F0010144
:102E10000160002070470000002804BF01207047B7
:102E200090F83510022904BF0220704701680A6833
:102E300022F001020A6001684FF0000CC1F800C0E6
:102E40000168C1F804C00168C1F808C00168C1F890
:102E50000CC00168C1F810C02121026851610168ED
:102E60000C4BCAB2103A6FF30901A3FB02320A4BB2
:102E70001209032A9B5CC36588BF091D3F22816537
:102E80009A408A60C0F854C080F835C080F834C0D9
:102E900000207047ABAAAAAAECD6000870B5044679
:102EA00000F044FA002C054604BF012070BD002646
:102EB000022084F8346084F835002068016821F02D
:102EC000010101602068006810F0010F0FD000F0D0
:102ED0002DFA401B052805D920206065032084F8C1
:102EE000350070BD2068006810F0010FEFD1216837
:102EF00008683E4A1040D4E901231A43D4E9033C50
:102F000043EA0C031A4363691A43A3691A43E3694A
:102F10001A43236A1A431043626A042A03D1D4E98C
:102F20000B231A4310430860236858694FF0010CC3
:102F300020F00701606A014304283ED1A06AA2691B
:102F4000014352B1B2F5005F1CD000281CBF01281C
:102F500002282CD0032826D02FE020B1012807D04A
:102F600002280AD029E0E06A10F0807F1FD124E017
:102F7000E06AB0F1C07F20D119E0E06A10F0807FF4
:102F800015D11AE098B1012808D002280FD00328E3
:102F900004BFE06AB0F1C07F09D00EE0E06A10F033
:102FA000807F04D109E0E06A10F0807F05D04020E6
:102FB000606584F835C0012070BD596120680C4AF5
:102FC000C1B210396FF30900A2FB0121094A0909B6
:102FD0000329525CE26588BF001D3F21A065914036
:102FE0008160666584F835C0002070BD3F8010E0C8
:102FF000ABAAAAAAECD6000870B490F834C000249A
:10300000856DBCF1010F02BF022070BC70474FF00C
:10301000010C80F834C090F835604FF0000C012EA0
:103020001CBF80F834C0022402D0204670BC704718
:10303000022680F83560C0F854C0D0F800C0DCF833
:10304000006026F48026CCF80060D0F800C0CCF8F0
:1030500004308368402B036803BF9A600268D16024
:1030600099601CBF0168CA6090F85C103F2202FAA8
:1030700001F1A96001680A6842F016020A6001685D
:103080004A6942F080024A61016C21B101680A6814
:1030900042F008020A600068016841F00101016025
:1030A000C3E731B500F042F9044600F03FF900995A
:1030B000001B8842F9D338BDB0F5005F18BF7047D8
:1030C00002480178491C017070470000DC000220B2
:1030D00004490A68024208BF704710B50860FFF74C
:1030E000EBFF10BD143C01402DE9F84FDFF81C92B6
:1030F0000022DFF814820F2709F1040A4FF0010EB5
:103100000B680EFA02F52B40AB4240F0F780D1F885
:1031100004C0BCF1020F18BFBCF1120F12D14FEA6C
:10312000D20C00EB8C0CDCF820605407E40E07FA9C
:1031300004FB26EA0B06D1F810B00BFA04F4344372
:10314000CCF8204006684FEA420C91F804B0032402
:103150000BF0030B04FA0CF4A6430BFA0CFB4BEA3E
:10316000060606604E68012E18BF022E03D0112EEF
:1031700018BF122E11D18668D1F80CB0A6430BFAF5
:103180000CFB4BEA06068660466826EA05050E79C2
:10319000C6F30016964035434560C56825EA040429
:1031A0008D6805FA0CFC4CEA040CC0F80CC0D1F890
:1031B00004C01CF0805F7CD0D8F800C04CF4804C78
:1031C000C8F800C0D8F800C00CF4804CCDF800C09E
:1031D00022F0030C0CF1804505F59835D5F808C8A8
:1031E0009407240F07FA04F62CEA0606A0F1804C97
:1031F000BCF5003C48D0A0F1804CBCF5013C08BFB8
:103200004FF0010C40D0A0F1804CBCF5023C08BF4F
:103210004FF0020C38D0A0F1804CBCF5033C08BF45
:103220004FF0030C30D0A0F1804CBCF5043C08BF3B
:103230004FF0040C28D0A0F1804CBCF5053C08BF31
:103240004FF0050C20D0A0F1804CBCF5063C08BF27
:103250004FF0060C18D0A0F1804CBCF5073C08BF1D
:103260004FF0070C10D0A0F1804CBCF5083C08BF13
:103270004FF0080C08D0A0F1804CBCF5093C0CBF05
:103280004FF0090C4FF00A0C0CFA04FC4CEA060C47
:10329000C5F808C8D9F800C04C682CEA030C14F42F
:1032A000803F18BF4CEA030CC9F800C0DAF800C030
:1032B00000E023E04C682CEA030C14F4003F18BF34
:1032C0004CEA030CCAF800C0114CD4F800C04D6899
:1032D0002CEA030C15F4801F18BF4CEA030CC4F849
:1032E00000C00C4CD4F800C04D682CEA030C15F457
:1032F000001F18BF4CEA030CC4F800C0521C102A6F
:10330000FFF4FEAEBDE8F88F44380240003C0140B7
:10331000083C01400C3C01400069084018BF0120F6
:103320007047002A08BF090481617047014800689E
:1033300070470000D800022002480168491C016063
:1033400070470000D8000220074810B5016841F41A
:1033500000710160032000F05DF80F2000F006F816
:1033600000F018F8002010BD003C024010B50446E3
:1033700007484FF47A720068B0FBF2F001F00AFAE5
:1033800000222146501E00F013F8002010BD00005E
:10339000140002207047012200F01F0102FA01F11F
:1033A0004009800000F1E020C0F8001170470000E3
:1033B000174B4DF8044D1B68C3F30223C3F1070CF0
:1033C000BCF1040F88BF4FF0040C1C1D072C34BF48
:1033D0000023DB1E012404FA0CFCACF1010C0CEA06
:1033E0000101994004FA03F35B1E1A4011430028BF
:1033F0004FEA0111B8BF00F00F0000F1E020B4BFA8
:1034000080F8141D80F800145DF8044B704700002C
:103410000CED00E0074A00F0070011684FF6FF03CB
:10342000194041EA002040F0FD7040F080601060DB
:10343000704700000CED00E01C4838B5016841F011
:103440008051016000681A4C00F0805000902068A4
:1034500040F480302060FFF769FF0546606810F493
:10346000803F09D1FFF762FF401BB0F57A7F14D887
:10347000606810F4803FF5D0206840F40030206090
:10348000FFF754FF0546606810F4003F0BD1FFF7CB
:103490004DFF401BB0F57A7F01D9032038BD60682D
:1034A00010F4003FF3D0002038BD00004038024047
:1034B000007000402DE9F047DFF8688104460D46B2
:1034C000D8F8000000F00F00A8420CD2D8F8000095
:1034D00020F00F002843C8F80000D8F8000000F0E2
:1034E0000F00A84270D120784F4F10F0020F05D086
:1034F0003868A16820F0F00008433860207810F0A8
:10350000010F4ED060684949012820D0096802287F
:1035100022D011F0020F57D0396821F0030108437F
:103520003860FFF703FF0646606841F288390128DA
:1035300016D00228386800F00C0021D0F8B1FFF74F
:10354000F5FE801B484528D90320BDE8F0870968AF
:1035500011F4003FE0D137E011F0007FDCD133E01F
:10356000386800F00C0004281BD0FFF7DFFE801B3A
:103570004845E9D8386800F00C000428F5D110E07F
:1035800008280ED0FFF7D2FE801B4845DCD83868EB
:1035900000F00C000828F5D103E0386810F00C0F9B
:1035A000CDD1D8F8000000F00F00A8420FD9D8F80C
:1035B000000020F00F002843C8F80000D8F80000F1
:1035C00000F00F00A84202D00120BDE8F08720786B
:1035D00010F0040F05D03868E16820F4E05008438B
:1035E0003860207810F0080F06D03868216920F480
:1035F000604040EAC100386000F04EF83968F022BF
:1036000092FAA2F201F0F001B2FA82F2D140084A35
:10361000515CC840074908600F20FFF7A7FE002053
:10362000BDE8F087003C0240083802400038024004
:10363000D4D6000814000220084809490068096827
:103640004FF4E05292FAA2F201F4E051B2FA82F29F
:10365000D140044A515CC840704700001400022069
:1036600008380240E4D6000808480949006809689B
:103670004FF4604292FAA2F201F46041B2FA82F28F
:10368000D140044A515CC840704700001400022039
:1036900008380240E4D600082148006810F00C0108
:1036A000204808BF7047DFF880C0042904BF604687
:1036B0007047082918BF70474DF8044D1B4A116820
:1036C000136801F03F0113F4800F47F6C0730BD06D
:1036D000BCFBF1F01168194093FAA3F3B3FA83F33A
:1036E000D94000FB01F00AE0B0FBF1F0116819408D
:1036F00093FAA3F3B3FA83F3D94000FB01F0116806
:103700004FF440325DF8044B92FAA2F201F44031DA
:10371000B2FA82F2D140491C4900B0FBF1F0704787
:10372000083802400024F40040787D01043802404B
:103730002DE9F84FDFF8A88304460078A8F10407C4
:1037400010F0010FA7F104055AD0D8F8000000F0DE
:103750000C00042809D0D8F8000000F00C0008285C
:103760000CD1386810F4800F08D0286810F4003F9E
:1037700046D06068002800F0AF8141E06068B0F595
:10378000803F04BF286840F480300AD010B1B0F503
:10379000A02F11D0286820F480302860286820F4F9
:1037A000802028606068D0B1FFF7C0FD0646286819
:1037B00010F4003F08D023E0286840F480202860FF
:1037C000286840F48030ECE7FFF7B0FD801B6428E8
:1037D00000F22581286810F4003FF5D010E0FFF7D3
:1037E000A5FD0646286810F4003F09D0FFF79EFDAE
:1037F000801B642800F21381286810F4003FF5D183
:10380000207810F0020F50D0D8F800004FF0F809DF
:1038100010F00C0F18D0D8F8000000F00C000828A9
:1038200004BF386810F4800F0ED0E06800282868C4
:1038300028D040F001002860FFF778FD0646286890
:1038400010F0020F09D011E0286810F0020F1CBF21
:10385000E06801280AD000F03FB9FFF767FD801B40
:1038600002287DD8286810F0020FF6D0286899FA4F
:10387000A9F22169B2FA82F220F0F80091400843DF
:10388000286012E020F001002860FFF74FFD064697
:10389000286810F0020F08D0FFF748FD801B0228AF
:1038A0005ED8286810F0020FF6D1207810F0080FCB
:1038B00033D0DFF8309260690028D9F8000016D0C4
:1038C00040F00100C9F80000FFF730FD0646D9F8C6
:1038D000000010F0020F20D1FFF728FD801B022806
:1038E0003ED8D9F8000010F0020FF5D015E020F016
:1038F0000100C9F80000FFF719FD0646D9F80000DD
:1039000010F0020F09D0FFF711FD801B022827D805
:10391000D9F8000010F0020FF5D1207810F0040F54
:1039200063D07148016841F08051016000686F4EBA
:1039300000F080500090306840F480703060FFF7F5
:10394000F5FC8146306810F4807F0BD1FFF7EEFC68
:10395000A0EB0900642862D8306810F4807F00E092
:103960005DE0F3D0A068624E012804BF306840F0EB
:10397000010009D008B1052813D0306820F00100FB
:103980003060306820F004003060A06841F2883A6E
:10399000D0B1FFF7CBFC8146306810F0020F08D0A1
:1039A00023E0306840F004003060306840F00100EF
:1039B000EAE7FFF7BBFCA0EB090050452FD83068C1
:1039C00010F0020FF5D010E0FFF7B0FC8146306830
:1039D00010F0020F09D0FFF7A9FCA0EB0900504539
:1039E0001DD8306810F0020FF5D1A069E8B3D8F8FF
:1039F000001001F00C0108296ED00228286820F080
:103A0000807028600ED0FFF791FC0446286810F003
:103A1000007F5ED0FFF78AFC001B022855D90320E7
:103A2000BDE8F88FFFF782FC0646286810F0007F9B
:103A300008D0FFF77BFC801B0228F0D8286810F024
:103A4000007FF6D1D4E9070147F6C0724FF0FF338B
:103A500092FAA2F20843616AB2FA82F29140A26A33
:103A600003EB52024FF4403300E032E093FAA3F349
:103A7000B3FA83F39A4011434FF070620843E16A4E
:103A800092FAA2F2B2FA82F291404FF0E042084379
:103A9000216B92FAA2F2B2FA82F2914008433860A6
:103AA000286840F080702860FFF740FC04462868D2
:103AB00010F0007F0DD1FFF739FC001B0228AED8B3
:103AC000286810F0007FF6D003E0286810F0007F2F
:103AD000A0D10020BDE8F88F0120BDE8F88F0000DC
:103AE00008380240743802404038024000700040FC
:103AF000703802402DE9F00790F820204FF0000CBC
:103B000081F85620828CA1F85420826A120E930903
:103B10000B70C2F383034B7002F003028A70826A57
:103B2000120CCA70028D120A0A7190F828204A718C
:103B30004FF6FF75C26A120E05EA0212CA80C26A07
:103B4000CB88C2F3074243EA1213CB8002F00F0284
:103B50000A72828DC2F30722D3094B72C2F380131B
:103B60008B72C2F34013CB72C2F300130B730026A7
:103B70004E73036A0124002B18BF012B00F0B7809D
:103B8000022B18BF4FF0290C00F0F380C2F3801312
:103B90004B769206520E8A7690F830208B7E43EA5E
:103BA000D2138B7602F07F02CA76426B120ED309D3
:103BB0000B77C2F341134B77C2F382038B779207E3
:103BC000120FCA77426BCB7FC2F3074243EA9213CC
:103BD000CB77C2F3401381F8203081F8216002F0E6
:103BE000010281F82220828EC2F30722D30981F8D4
:103BF0002330C2F3801381F82430C2F3401381F8DC
:103C00002530C2F3001381F82630C2F3810381F816
:103C1000273002F0030281F8282090F8342052085F
:103C200081F8292081F82A40826B120E81F82C201D
:103C3000826B120C05EA0222CA85028FCB8DC2F379
:103C400007221A43CA8590F8382012060A63C26B0D
:103C50000B6B120E43EA02420A63C26B0B6BC2F398
:103C6000074243EA02220A63828F0B6BC2F30722E8
:103C70001A430A6390F83C2081F83420026C120E3B
:103C800081F83520026C120C12068A63B0F84020CD
:103C90008B6BC2F3072243EA02428A6390F840200A
:103CA0008B6B43EA02228A63426C8B6B43EA12629B
:103CB0008A63426C91F83C30C2F3074243EA121324
:103CC00081F83C301207120DCA87B0F84420CB8F20
:103CD000C2F307221A43CA8790F84400400881F8CB
:103CE000400081F841406046BDE8F0077047920708
:103CF000120D0A6190F82C200B6943EA82020A61D6
:103D0000026B0B69120E43EA92130B61C2F3C203FA
:103D10000B7502F007024A75026BC2F307425309A2
:103D20008B75C2F38203CB759207520F0A76028E0F
:103D30000B7EC2F3072243EAD2130B760B690F7E88
:103D4000BF1C04FA07F85B1C4FEAE879A3FB087A6A
:103D500006FB08A803FB09880B7A04FA03F30B653A
:103D6000A7FB039A08FB03A307FB0633C1E91293E1
:103D70000CE790F82C209206920A0A61026B0B69FC
:103D8000120E43EA02220A61026B0B69C2F3074278
:103D90001A430A61028E0B69C2F307225B1C46F1CB
:103DA0000007FF0447EA5337DB04C1E912374FF439
:103DB00000730B65EAE62DE9F34F87B00446002651
:103DC0008DF81860067700F0FFF9762000963346EC
:103DD00032463146CDE90160206802F0A7FD8DF83A
:103DE0001460B046206845464746C146416821F404
:103DF00080714160206802F0AFFD0120FFF751F9AA
:103E00002068416841F480714160009669460196DE
:103E1000029603964FF480660496206802F0A3FD94
:103E200022680023B001516B40F2FF5AC1F3C01168
:103E300004E0516B401EC1F3C0110FD00029F8D02F
:103E4000002818BFC2F838A008D08DF814309DF8AB
:103E500014004FF0040B002851D101E00323F4E7D4
:103E60004FF4D57000900820019040200290206807
:103E7000694602F078FD216829234FF480304A6BAF
:103E800012F0450218BF01224AB906E04A6B12F04F
:103E9000450218BF0122401EF6E70028F6D14A6B02
:103EA000C2F3800200B11AB10323C1F838B006E0B2
:103EB000486B10F0400F02D00023402088638DF83B
:103EC00014309DF8140018B9012020624FF0804989
:103ED00069460020009037200190206802F043FDE1
:103EE0003721204602F054FD8DF814009DF814008F
:103EF000002804BF49F4801949F000493DD051E041
:103F000037204FF040080027CDF808806946CDE9FA
:103F10000070CDE90376206802F025FD37212046A8
:103F200002F036FD8DF814009DF81400A0BB292086
:103F3000CDF80090CDE90108CDE903762068694607
:103F400002F011FD20680022416B11F0450FFBD0FB
:103F5000416B11F0040F0EBFC0F838A00322C0F867
:103F600038B08DF814209DF81400A8B920680021FD
:103F700002F0D5FCC70F80466D1C1FB94FF6FF70CD
:103F80008542BDD34FF6FF70854206D31B208DF8C6
:103F900014009DF8140007E004E018F0804F1CBFE7
:103FA000022121629DF814008DF818009DF8180078
:103FB000002840F0D6800127ADF814702068002555
:103FC00002F0A9FC002816BF206A252504287ED00F
:103FD000022104960020CDE90001C021CDE90210A4
:103FE0002068694602F0BFFC20680025416B11F093
:103FF000450FFBD0416B11F0040F1CBF0325C0F827
:1040000038B002D0002D62D108E0416B11F0010FF1
:104010001ABF3D468763C0F838A0F3E72068002147
:1040200002F07DFCA0630421206802F078FCE063CC
:104030000821206802F073FC20640C21206802F043
:104040006EFC6064206A002818BF012803D006288F
:1040500018BF022843D1032001904020029020681D
:10406000694602F080FC206800250DF114084FF02D
:104070000309416B11F0450FFBD0416B11F0040FA8
:104080001CBF0325C0F838B028D1416B11F0010FD7
:104090001CBF3D46876321D102F03AFC484515D14B
:1040A0002068C0F838A00021206802F038FC10F425
:1040B000604F04BF000CA8F800000FD010F4005FA0
:1040C00018BF13250AD110F4804F03D000E043E05D
:1040D000102503E010F4004F18BF0F25E5BB206A40
:1040E000042839D0BDF814006946606200040090CD
:1040F00009200190C0200290206802F034FC206862
:104100000025416B11F0450FFBD0416B11F0040FFE
:104110001CBF0325C0F838B001D0EDB908E0416BF1
:1041200011F0010F1ABF3D468763C0F838A0F4E7CD
:104130002068002102F0F3FBA0620421206802F055
:10414000EEFBE0620821206802F0E9FB20630C210D
:10415000206802F0E4FB60638DF818509DF81800A9
:1041600020B19DF8180009B0BDE8F08F08992046ED
:10417000FFF7C0FC8DF818009DF81800A8B9089842
:104180000021B0F85400049600040090072001902C
:104190004020CDE902012068694602F0E4FB0721D6
:1041A000204602F0F5FB8DF81800D4E90401A2695D
:1041B0000292CDE9000194E80F0002F0B7FB9DF8F0
:1041C000180009B0BDE8F08F1E484DF804ED87B027
:1041D000016841F400610160006800F4006005902E
:1041E0001948016841F480010160016801F480010F
:1041F0000591016841F004010160016801F00401CA
:104200000591016841F0080101600068694600F00D
:10421000080005904FF4F850009002200190012012
:104220000290032003900C2004900848FEF75CFFE6
:104230000420009006486946FEF756FF07B05DF877
:1042400004FB0000443802403038024000080240BD
:10425000000C02402DE9F0478CB0044690460D4614
:104260004FF0000ADDE914670068C0F82CA0206A4E
:10427000022803D10602510A41EAC35869461020B8
:10428000CDE900604020CDE9020A000104902068D9
:1042900002F069FB1021204602F07AFB00281CBFC7
:1042A0000CB0BDE8F0874FF0FF304FF0020906A9CF
:1042B000069007FB06F007909020CDE90809012041
:1042C000CDE90AA0206802F011FB012F8CBF12205B
:1042D0001120CDF8008001906946206802F043FB70
:1042E000012F24D91221204602F052FB5FEA000878
:1042F0001CBF0CB0BDE8F0872068406B10F4957FC0
:104300003BD12068406B10F4004F18BF002608D046
:10431000206802F025FB45F82600761C082EF7D30E
:1043200020352068406B10F4957FEAD025E01121FC
:10433000204602F02DFB5FEA00081CBF0CB0BDE870
:10434000F0872068406B40F22A4A10EA0A0F14D125
:104350002068406B10F4004F18BF002608D020687A
:1043600002F0FEFA45F82600761C082EF7D3203519
:104370002068406B10EA0A0FEAD02068406B10F406
:10438000807F18BF012F09D9206A00281CBF01288F
:10439000022803D1204600F037F880462168486B98
:1043A00010F0080F05D0082088630CB00420BDE889
:1043B000F087486B10F0020F1FBF4846C1F83890D5
:1043C0000CB0BDE8F087486B10F0200F08BF4FF02D
:1043D000FF360AD0202088630CB00620BDE8F087A5
:1043E00002F0BEFA761E45F8040B2068416B11F40A
:1043F000001F18BF002EF3D1216840F2FF508863E0
:104400000CB04046BDE8F08710B50C21044686B0DC
:104410000020CDE900014021CDE9021008010490FF
:104420002068694602F09FFA0C21204602F0B0FA9B
:1044300006B010BD2DE9F0470446006A00260D467F
:10444000032888B002BF272008B0BDE8F087002805
:104450001CBF012802287CD1B5F5805F08BF272644
:1044600077D037274FF0400800264FF0060AB5F501
:10447000006F4FF4806904D0002D18BF262634D079
:1044800071E0069600210796206802F048FA10F0C5
:10449000007F01D00E2055E006A9204602F004FB63
:1044A00000284FD1079810F4802F1CD0A08C6946AB
:1044B000CDE90286CDF810900004CDE90007206810
:1044C00002F051FA3721204602F062FAD0BB0220F6
:1044D0006946CDE9000A206802F045FA0621204627
:1044E00002F056FA2EE025202CE0069600210796D1
:1044F000206802F014FA10F0007FCBD106A9204604
:1045000002F0D2FAF0B9079810F4803FEBD0A08CFB
:104510006946CDE90286CDF810900004CDE9000788
:10452000206802F020FA3721204602F031FA48B91B
:10453000CDE9006A2068694602F015FA0621204696
:1045400002F026FA06000ED1D4E90501D4E90223CF
:1045500000E008E0D4F804C00095CDE9010120682E
:10456000614602F0E3F908B03046BDE8F0872DE976
:10457000F04F8DB00446002691460D46B2468DF8A8
:1045800014600068DDE91678C662206A022803D14B
:104590000702510A41EAC35969461020CDE900706B
:1045A0004020CDE9020A00010490206802F0DBF906
:1045B0001021204602F0ECF900281CBF0DB0BDE828
:1045C000F08FB8F1010F8CBF19201820CDF80090A2
:1045D00001906946206802F0C6F9B8F1010F04D9CC
:1045E0001921204602F0D4F903E01821204602F0F8
:1045F000CFF900281CBF0DB0BDE8F08F08FB07F90C
:104600004FF0FF3006A9CDE906099020CDE9080A50
:104610000120CDE90AA0206802F068F92068B8F10D
:10462000010F406B33D910F48D7F65D12068406B4A
:1046300010F4804F25D0A9EB0600202828BF0027C2
:1046400015D210F0030F0EBF4FEA900A800800F158
:10465000010A0027BAF1000F13D92068294602F099
:1046600092F92D1D361D7F1CBA45F6D809E0206849
:1046700005EB870102F087F97F1C082FF7D320355F
:1046800020362068406B10F48D7FCFD034E040F2AC
:104690001A4A10EA0A0F2FD12068406B10F4804F9D
:1046A00025D0A9EB0600202828BF002715D210F03E
:1046B000030F0EBF4FEA900B800800F1010B00279B
:1046C000BBF1000F13D92068294602F05CF92D1DBB
:1046D000361D7F1CBB45F6D809E0206805EB870135
:1046E00002F051F97F1C082FF7D3203520362068BF
:1046F000406B10EA0A0FCFD02068406B10F4807F27
:1047000018BFB8F1010F07D9206A002819BF012886
:1047100002282046FFF778FE2168486B10F0080F4A
:1047200005D0082088630DB00420BDE8F08F486BE9
:1047300010F0020F1FBF022088630DB0BDE8F08F9C
:10474000486B10F0100F14BF102040F2FF50886328
:104750001EBF05200DB0BDE8F08F05A9204602F070
:1047600059FA011E03D00DB00846BDE8F08F9DF840
:104770001400072818BF0628EFD0F4E74FF0E02117
:10478000042808690CBF40F0040020F00400086110
:1047900070470000401EB0F1807F24BF01207047A9
:1047A0004FF0E0214861F020044A82F8140D002007
:1047B0008861072008610020704700000FE000E0DA
:1047C00070477047002804BF0120704710B50446A9
:1047D00090F83900002804BF204600F00DF80220B0
:1047E00084F839002068211D02F090FD012084F832
:1047F0003900002010BD000038B504460068164D91
:10480000A0F18041B1F580610FD1286840F002002D
:10481000286028680022052100F0020000901D2079
:10482000FEF7C6FD1D20FEF7B6FD2068B0F1804FF3
:1048300018BF38BD286840F00100286028680022B1
:10484000062100F0010000901C20FEF7B1FDBDE83C
:1048500038401C20FEF79FBD403802400168CA68FE
:1048600042F00102CA600068016841F00101016084
:1048700000207047704770B50446006801694FF02A
:10488000000511F0020F1CBFC16811F0020F13D018
:104890006FF002010161012020762068806910F02C
:1048A000030F204602D0FFF7E5FF04E000F0A6F872
:1048B000204600F0A4F825762068016911F0040F65
:1048C0001CBFC16811F0040F13D06FF00401016127
:1048D000022020762068806910F4407F204602D0B4
:1048E000FFF7C8FF04E000F089F8204600F087F8E1
:1048F00025762068016911F0080F1CBFC16811F00E
:10490000080F13D06FF008010161042020762068A1
:10491000C06910F0030F204602D0FFF7ABFF04E0A0
:1049200000F06CF8204600F06AF8257620680169EE
:1049300011F0100F1CBFC16811F0100F13D06FF0F1
:1049400010010161082020762068C06910F4407FC2
:10495000204602D0FFF78EFF04E000F04FF820461B
:1049600000F04DF825762068016911F0010F1CBF99
:10497000C16811F0010F05D06FF0010101612046FF
:1049800000F03EF8206801696FF0800511F0800F9B
:104990001CBFC16811F0800F03D005612046FFF7EE
:1049A0000FFF2068016911F4807F1CBFC16811F0FE
:1049B000800F03D005612046FFF702FF20680169E0
:1049C00011F0400F1CBFC16811F0400F05D06FF00F
:1049D00040010161204600F033F82068016911F0C0
:1049E000200F1ABFC16811F0200F70BD6FF02001B9
:1049F00001612046BDE87040FFF7E3BE7047704795
:104A000010B504460848844204D1002211461046DD
:104A100007F024F90548844218BF10BD04A0BDE882
:104A20001040FBF75DBD0000300A0220F4090220AF
:104A300048657265206973203173200D0A000000FB
:104A4000704770B5044690F869002025212814D1DC
:104A50002068816811F0800F0FD0816821F08001FB
:104A60008160206E002818BFFEF770F92068016889
:104A700021F0C001016084F8695094F86A0022288E
:104A800019D12068816811F0400F14D0816821F09D
:104A900040018160606E002818BFFEF757F920685A
:104AA000016821F4907101602068816821F00101A2
:104AB000816084F86A50002070BD704770B501684D
:104AC0000446C8690A688B6810F00F0F4FF0200584
:104AD00051D040F2011C13EA0C0F7DD010F0010FF1
:104AE00018BF12F4807F07D04FF0010CC1F820C02E
:104AF000E16E41F00101E16610F0020F18BF13F002
:104B0000010F08D0D4F800C00221CCF82010E16ECB
:104B100041F00401E16610F0040F18BF13F0010F1B
:104B200008D0D4F800C00421CCF82010E16E41F088
:104B30000201E16610F0080F0CD002F0200103F032
:104B40000103194306D0236808211962E16E41F080
:104B50000801E166E16E002908BF70BD10F0200F6A
:104B60001EBF12F0200F204602F029FDE06E10F06B
:104B7000080F10D10AE010F0200F18BF12F0200F1C
:104B800039D02046BDE8704002F019BD2068806829
:104B900010F0400F29D02068016821F49071016065
:104BA0002068816821F00101816084F86A502068E2
:104BB000816811F0400F14D0816821F040018160BC
:104BC000606E70B12D490165606EFEF712F9002824
:104BD00008BF70BD606E00E00DE0016DBDE8704083
:104BE00008472046FFF769FF70BD2046FFF765FFC5
:104BF0000020E06670BD10F0800F18BF12F0800F2B
:104C00002CD094F86900212818BF70BDB4F8520068
:104C100090B1A068B0F5805F04BF20690028E06C07
:104C200014D0411CE164216800788862B4F8520015
:104C3000401EA4F8520070BD086820F08000086093
:104C40002068016841F04001016070BD0088C0F338
:104C500008008862E06C801CE064E7E710F0400F19
:104C600014BF12F0400F70BD20460A6822F04002C7
:104C70000A6084F8695000F0D5F970BD0B75000822
:104C8000002804BF0120704710B5044690F8690061
:104C900028B9002084F86800204600F029F8242074
:104CA00084F869002068016821F001010160204654
:104CB00002F0C4FC012808BF10BD606A00281CBFB8
:104CC000204602F085FB2068416821F49041416054
:104CD0002068816821F02A0181602068016841F024
:104CE000010101602046BDE8104002F0DEBB00007B
:104CF0002DE9F04304460068364D0226364FA0F1F8
:104D00008041B1F588314FF0010887B04FF00709B5
:104D100029D1286840F001002860286800F00100CF
:104D200005902E48016841F0100101600068694655
:104D3000CDE9028600F0100005906815CDF81090BE
:104D4000CDE900063846FEF7CFF9281569460090F0
:104D50003846FEF7C9F92520FEF71DFB0022032186
:104D60002520FEF725FB2068A0F18041B1F58841A0
:104D70001CBF07B0BDE8F083286840F00100286040
:104D8000286800F0010005901548016841F40031E1
:104D9000016000686946CDE9028600F400300590A4
:104DA0000420CDF81090CDE900063846FEF79CF9B6
:104DB0000821384600916946FEF796F92620FEF74D
:104DC000EAFA002204212620FEF7F2FA07B0BDE835
:104DD000F0830000303802400000024044380240B6
:104DE0004038024090F86A30202B49D1002912BF88
:104DF000002A0120704790F86830012B40D0012331
:104E000080F868304165A0F85820A0F85A20FF22A9
:104E10008168B1F5805F05D07F2351B1B1F1805F2A
:104E20000CD012E00169002908BF40F2FF1102D145
:104E300009E0016909BBA0F85C2006E001690029CE
:104E400018BF3F2119D0A0F85C100021C1662222B2
:104E500080F86A2080F8681001680A6842F480725D
:104E60000A6001688A6842F001028A60006801688D
:104E700041F02001016000207047A0F85C30E4E7B9
:104E80000220704738B504460068A0F18041B1F5B2
:104E900088310AD10D4801224FF47A7369460078AF
:104EA0008DF800000A4800F017F82068A0F1804152
:104EB000B1F5884118BF38BD06480478204601F096
:104EC0003DFC204600F0D8FA38BD0000C9000220A1
:104ED00014090220CA0002202DE9F843044690F884
:104EE00069001E4691460D4620284FD1002D12BF65
:104EF000B9F1000F0120BDE8F88394F8680001289B
:104F000044D0012084F868000027E766212084F857
:104F10006900FEF70BFAA4F850908046A4F852906E
:104F20000022B4F8520080214346401EA4F85200EB
:104F30002046009602F0D6FCB0B9A068B0F5805FBC
:104F400004BF2069002812D0216815F8010B88627F
:104F5000B4F852000028E3D1002243464021204605
:104F6000009602F0BFFC48B10320BDE8F883216839
:104F700035F8020BC0F308008862E9E7202084F8C6
:104F80006900002084F86870BDE8F8830220BDE85D
:104F9000F883000037B5044690F86900202837D11F
:104FA0000199002911BF002A012003B030BD94F8F7
:104FB000680001282CD0012084F86800E1640025F5
:104FC000A4F85020A4F85220E566212084F8690056
:104FD000236E1148D863236E10481864236E10485E
:104FE000D8641346206E0565206800F1280C206EF9
:104FF0006246FEF701F821684020086284F8685094
:105000002068816841F08001816003B0002030BDDC
:1050100003B0022030BD000083750008B57500089C
:105020001F7500087047704701A0FBF759FAFEE7AB
:105030004865726520697320486172644661756CC9
:10504000745F48616E646C650D0A000070B5164EA1
:105050000024012220213046FEF763F9072560066F
:105060000022040E30461021FEF75BF9012002F009
:1050700067FF012230461021FEF753F9012002F0AC
:105080005FFF20213046FEF747F9002818BF44F0A3
:105090000104691ECDB2E2D2002230461021FEF793
:1050A00040F9204670BD0000001C024010B5124CB3
:1050B000002210212046FEF734F9206820F44060D9
:1050C0002060206840F4806020600022204620217B
:1050D000FEF727F9022002F033FF012220461021BB
:1050E000FEF71FF9022002F02BFF00222046BDE848
:1050F00010401021FEF715B9001C0240114810B5F0
:1051000086B0016841F080010160006869460E4C7C
:1051100000F0800005903020009001200190029066
:10512000022003902046FDF7DFFF012220462021C8
:10513000FEF7F7F8012220461021FEF7F2F806B03C
:1051400010BD000030380240001C024010B5124C67
:10515000002210212046FEF7E4F8206820F4406089
:105160002060206840F480602060012220462021D9
:10517000FEF7D7F8022002F0E3FE012220461021BC
:10518000FEF7CFF8022002F0DBFE00222046BDE849
:1051900010401021FEF7C5B8001C024070B51C4E2F
:1051A00005463046316821F440613160316841F490
:1051B0008061316000221021FEF7B3F8002415F061
:1051C000800F05D0012230462021FEF7AAF804E026
:1051D000002230462021FEF7A4F86806050E0220C2
:1051E00002F0AEFE012230461021FEF79AF80220AE
:1051F00002F0A6FE002230461021FEF792F80220AF
:1052000002F09EFE601CC4B2082CD8D370BD000012
:10521000001C024010B5124C206820F44060206051
:10522000206840F480602060012220462021FEF7A3
:1052300078F8012220461021FEF773F8042002F0CE
:105240007FFE002220462021FEF76BF8042002F0AA
:1052500077FE00222046BDE810401021FEF761B81D
:10526000001C024010B5124C206820F44060206001
:10527000206840F480602060002220461021FEF764
:1052800050F8002220462021FEF74BF8042002F0BF
:1052900057FE012220461021FEF743F8042002F0B9
:1052A0004FFE01222046BDE810402021FEF739B80C
:1052B000001C0240104810B586B0016841F00201A0
:1052C0000160006801210D4C00F0020005900320F0
:1052D000CDE90001CDE9021069462046FDF704FF43
:1052E000012220461146FEF71CF801222046022129
:1052F000FEF717F806B010BD303802400004024037
:105300007521D02010B500F01EF8712818BF10BD0F
:1053100000226B21D02000F036F807221921D0207E
:1053200000F031F806221A21D02000F02CF81822C3
:105330001B21D02000F027F801221C21BDE81040DD
:10534000D02000F020B870B50D460446FFF762FF8C
:105350002046FFF723FFFFF7A9FE2846FFF71EFFB1
:10536000FFF7A4FEFFF756FF44F00100FFF716FF1A
:10537000FFF79CFEFFF76AFE0446FFF7E7FEFFF724
:1053800071FF204670BD70B514460D460646FFF706
:1053900041FF3046FFF702FFFFF788FE2846FFF780
:1053A000FDFEFFF783FE2046FFF7F8FE0A2002F01D
:1053B00099FDFFF77BFEFFF755FF0A2002F092FDF3
:1053C000012070BDF8B5264A4026244F0023B402C0
:1053D0000325B84217684FF4806C1FD947F4800743
:1053E00017601268204F02F4800200921D4A3A664C
:1053F0009763C2E90263C2E904C39361C2E9073457
:10540000C2E90935D3621363C2E900011046FDF712
:1054100003FDBDE8F8401348FDF740BD47F4001711
:1054200017601268124F02F4001200920F4A3A6697
:105430009763C2E90263C2E904C39361C2E9073416
:10544000C2E90935D3621363C2E900011046FDF7D2
:10545000E3FCBDE8F8400548FDF720BD00640240CC
:10546000303802406C0A0220A4080220CC0A022034
:1054700014090220FEE70000294B4DF8044DD978AD
:105480000C2924BF0B21D970DFF898C0C9B20024C1
:105490000CF80100481C0121C0B2D87004281CD8A7
:1054A0009CF80020B52A17BFDC7004285DF8044B77
:1054B0007047B52A04BF9CF80100622808D19CF807
:1054C0000300012801BF0A2018715DF8044B7047E2
:1054D0001971DC705DF8044B70471A79824284BF01
:1054E0005DF8044B7047DC709CF8060006281CBF72
:1054F0005DF8044B70479CF80720012A0A4805D044
:10550000082A08BF01705DF8044B70474170817034
:10551000C170C1710171417181715DF8044B7047B7
:10552000C8000220840902200C00022070470000FD
:105530000E4A00234DF8044D01449374431C9BB262
:105540001385994288BF0A4B0CD9108D947C13F8AF
:1055500000C0401C80B28CEA040C82F812C0814268
:105560001085F2D8907C5DF8044B704758000220FB
:10557000130702200B4A01090B4B1170494200EB43
:105580000110507000205874C0B2115C092994BFFA
:10559000303137311154401CC0B258740228F3D353
:1055A00070470000E60602205800022000000000BC
:1055B0002DE9F0411923074600222DED048B8EB012
:1055C0006946FCF7B5FCBC4C0025012600286AD0D2
:1055D0009DF800008DF81C009DF801008DF81D005D
:1055E00007A88DF81E50FBF749F820709DF80200BF
:1055F0008DF81C009DF803008DF81D0007A88DF89C
:105600001E50FBF73BF860709DF804008DF81C00FD
:105610009DF805008DF81D0007A88DF81E50FBF7BA
:105620002DF8A0709DF807008DF81C009DF808006B
:105630008DF81D009DF809008DF81E0007A88DF853
:105640001F50FBF71BF8A0802078002801BF60786E
:105650000028A078002818BF84F88D6023D0192373
:10566000694601223846FCF763FCE8469FED949BAF
:105670009FED958BD0B14046FCF7ECFBB0B108F143
:10568000020002F08DF980EE091B684684ED021BD2
:105690008DF8025002F084F994ED021B30EE010BFC
:1056A00084ED020B04E084F88D50D8E784ED028B82
:1056B0001923694602223846FCF73AFC50B19DF89E
:1056C00000102176532905D194ED020BB1EE400B69
:1056D00084ED020B1923694603223846FCF728FCA7
:1056E000B8B16846FCF7B6FB98B108F1030002F0C8
:1056F00057F980EE091B684684ED081B8DF80350AE
:1057000002F04EF994ED081B30EE010B84ED080B0E
:1057100001E084ED088B1923694604223846FCF722
:1057200007FC58B19DF8001084F83010572905D1B6
:1057300094ED080BB1EE400B84ED080B192369467C
:1057400005223846FCF7F4FB002808BF84F83150E6
:1057500004D09DF80000303884F8310019236946E0
:1057600006223846FCF7E4FB002808BF84F83250D4
:105770000ED09DF800008DF81C009DF801008DF8FA
:105780001D0007A88DF81E50FAF778FF84F8320044
:105790001923072269463846FCF7CAFB20B1684640
:1057A00002F0FEF884ED0E0B1923694608223846F4
:1057B000FCF7BEFB40B16846FCF74CFB20B16846E5
:1057C00002F0EEF884ED100B1923694609223846E1
:1057D000FCF7AEFB00281CBF9DF8000084F84800D1
:1057E00019230A2269463846FCF7A2FB20B1684615
:1057F00002F0D6F884ED140B192369460B223846C3
:10580000FCF796FB00281CBF9DF8000084F85800A8
:1058100019230C2269463846FCF78AFB20B16846FA
:1058200002F0BEF884ED180B192369460D223846A4
:10583000FCF77EFBA8B16846FAF720FFA4F86800E1
:1058400084F86A609DF8000084F888009DF80100E3
:1058500084F889009DF8020084F88A009DF803000E
:1058600008E084F86A50302084F8880084F88900C1
:1058700084F88A0084F88B00207E154953281CBFC9
:105880004E284E7094F8300057281CBF45284E70A3
:1058900094F848004D2806BF94F858004D284E70E3
:1058A000E06E401CE0660B4806700EB0BDEC048B49
:1058B000BDE8F08100000000880102200000000027
:1058C0000000000000004E4000000000000000004A
:1058D00050000220580602202DE9F0411923074606
:1058E00000222DED048B8EB06946FCF721FBC24CE3
:1058F00000250126002808BF84F8E15041D09DF81A
:1059000000008DF81C009DF801008DF81D0007A80F
:105910008DF81E50FAF7B2FE84F890009DF8020050
:105920008DF81C009DF803008DF81D0007A88DF868
:105930001E50FAF7A3FE84F891009DF804008DF83C
:105940001C009DF805008DF81D0007A88DF81E505D
:10595000FAF794FE84F892009DF807008DF81C0079
:105960009DF808008DF81D009DF809008DF81E00B7
:1059700007A88DF81F50FAF781FEA4F8940084F868
:10598000E1601923012269463846FCF7D1FA002864
:105990001CBF9DF8000084F8960019230222694676
:1059A0003846FCF7C5FAE8469FED959B9FED968B30
:1059B000B8B14046FCF74EFA98B108F1020001F088
:1059C000EFFF80EE091B684684ED261B8DF8025020
:1059D00001F0E6FF94ED261B30EE010B84ED260B63
:1059E00001E084ED268B1923694603223846FCF733
:1059F0009FFA58B19DF8001084F8A010532905D1E2
:105A000094ED260BB1EE400B84ED260B192369466D
:105A100004223846FCF78CFAB8B16846FCF71AFA4B
:105A200098B108F1030001F0BBFF80EE091B684646
:105A300084ED2A1B8DF8035001F0B2FF94ED2A1B70
:105A400030EE010B84ED2A0B01E084ED2A8B192343
:105A5000694605223846FCF76BFA58B19DF80010EC
:105A600084F8B010572905D194ED2A0BB1EE400B04
:105A700084ED2A0B1923694608223846FCF758FAA8
:105A8000002808BF84F8E25030D09DF800008DF85F
:105A90001C009DF801008DF81D0007A88DF81E5010
:105AA000FAF7ECFD84F8CA009DF802008DF81C009E
:105AB0009DF803008DF81D0007A88DF81E50FAF719
:105AC000DDFD84F8CB009DF804008DF81C009DF8E6
:105AD00005008DF81D0007A88DF81E50FAF7CEFDC1
